{
  "contractName": "AirDrop",
  "abi": [
    {
      "inputs": [
        {
          "internalType": "address",
          "name": "_tokenAddress",
          "type": "address"
        }
      ],
      "stateMutability": "nonpayable",
      "type": "constructor"
    },
    {
      "anonymous": false,
      "inputs": [
        {
          "indexed": true,
          "internalType": "address",
          "name": "previousOwner",
          "type": "address"
        },
        {
          "indexed": true,
          "internalType": "address",
          "name": "newOwner",
          "type": "address"
        }
      ],
      "name": "OwnershipTransferred",
      "type": "event"
    },
    {
      "inputs": [],
      "name": "owner",
      "outputs": [
        {
          "internalType": "address",
          "name": "",
          "type": "address"
        }
      ],
      "stateMutability": "view",
      "type": "function"
    },
    {
      "inputs": [],
      "name": "renounceOwnership",
      "outputs": [],
      "stateMutability": "nonpayable",
      "type": "function"
    },
    {
      "inputs": [],
      "name": "tokenInstance",
      "outputs": [
        {
          "internalType": "contract UnnamedToken",
          "name": "",
          "type": "address"
        }
      ],
      "stateMutability": "view",
      "type": "function"
    },
    {
      "inputs": [
        {
          "internalType": "address",
          "name": "newOwner",
          "type": "address"
        }
      ],
      "name": "transferOwnership",
      "outputs": [],
      "stateMutability": "nonpayable",
      "type": "function"
    },
    {
      "inputs": [
        {
          "internalType": "address payable[]",
          "name": "_address",
          "type": "address[]"
        },
        {
          "internalType": "uint256",
          "name": "_amount",
          "type": "uint256"
        },
        {
          "internalType": "uint256",
          "name": "_ethAmount",
          "type": "uint256"
        }
      ],
      "name": "doAirDrop",
      "outputs": [
        {
          "internalType": "bool",
          "name": "",
          "type": "bool"
        }
      ],
      "stateMutability": "nonpayable",
      "type": "function"
    },
    {
      "inputs": [
        {
          "internalType": "address[]",
          "name": "_recipients",
          "type": "address[]"
        },
        {
          "internalType": "uint256[]",
          "name": "_values",
          "type": "uint256[]"
        }
      ],
      "name": "sendBatch",
      "outputs": [
        {
          "internalType": "bool",
          "name": "",
          "type": "bool"
        }
      ],
      "stateMutability": "nonpayable",
      "type": "function"
    },
    {
      "inputs": [],
      "name": "transferEthToOnwer",
      "outputs": [
        {
          "internalType": "bool",
          "name": "res",
          "type": "bool"
        }
      ],
      "stateMutability": "nonpayable",
      "type": "function"
    },
    {
      "inputs": [],
      "name": "kill",
      "outputs": [],
      "stateMutability": "nonpayable",
      "type": "function"
    }
  ],
  "bytecode": "0x608060405234801561001057600080fd5b50604051610a18380380610a1883398101604081905261002f916100ad565b6100383361005d565b600180546001600160a01b0319166001600160a01b03929092169190911790556100db565b600080546001600160a01b038381166001600160a01b0319831681178455604051919092169283917f8be0079c531659141344cd1fd0a4f28419497f9722a3daafe3b4186f6b6457e09190a35050565b6000602082840312156100be578081fd5b81516001600160a01b03811681146100d4578182fd5b9392505050565b61092e806100ea6000396000f3fe608060405234801561001057600080fd5b50600436106100785760003560e01c8063391c6cec1461007d57806341c0e1b5146100a55780635807630f146100af578063658030b3146100b7578063715018a6146100e25780638535d2ec146100ea5780638da5cb5b146100fd578063f2fde38b14610105575b600080fd5b61009061008b36600461073a565b610118565b60405190151581526020015b60405180910390f35b6100ad6102c8565b005b61009061030a565b6001546100ca906001600160a01b031681565b6040516001600160a01b03909116815260200161009c565b6100ad61036e565b6100906100f8366004610678565b6103a9565b6100ca6104e7565b6100ad610113366004610655565b6104f6565b6000336101236104e7565b6001600160a01b0316146101525760405162461bcd60e51b81526004016101499061081e565b60405180910390fd5b835160005b818110156102bf5760015486516001600160a01b039091169063a9059cbb9088908490811061019657634e487b7160e01b600052603260045260246000fd5b6020026020010151876040518363ffffffff1660e01b81526004016101bc929190610805565b602060405180830381600087803b1580156101d657600080fd5b505af11580156101ea573d6000803e3d6000fd5b505050506040513d601f19601f8201168201806040525081019061020e91906107e5565b5085818151811061022f57634e487b7160e01b600052603260045260246000fd5b60200260200101516001600160a01b03163160001480156102505750834710155b156102ad5785818151811061027557634e487b7160e01b600052603260045260246000fd5b60200260200101516001600160a01b03166108fc859081150290604051600060405180830381858888f193505050506102ad57600080fd5b806102b7816108a6565b915050610157565b50509392505050565b336102d16104e7565b6001600160a01b0316146102f75760405162461bcd60e51b81526004016101499061081e565b6102ff6104e7565b6001600160a01b0316ff5b6000336103156104e7565b6001600160a01b03161461033b5760405162461bcd60e51b81526004016101499061081e565b6103436104e7565b6001600160a01b03166108fc479081150290604051600060405180830381858888f194505050505090565b336103776104e7565b6001600160a01b03161461039d5760405162461bcd60e51b81526004016101499061081e565b6103a76000610596565b565b6000336103b46104e7565b6001600160a01b0316146103da5760405162461bcd60e51b81526004016101499061081e565b81518351146103e857600080fd5b60005b82518110156104dd5760015484516001600160a01b039091169063a9059cbb9086908490811061042b57634e487b7160e01b600052603260045260246000fd5b602002602001015185848151811061045357634e487b7160e01b600052603260045260246000fd5b60200260200101516040518363ffffffff1660e01b8152600401610478929190610805565b602060405180830381600087803b15801561049257600080fd5b505af11580156104a6573d6000803e3d6000fd5b505050506040513d601f19601f820116820180604052508101906104ca91906107e5565b50806104d5816108a6565b9150506103eb565b5060019392505050565b6000546001600160a01b031690565b336104ff6104e7565b6001600160a01b0316146105255760405162461bcd60e51b81526004016101499061081e565b6001600160a01b03811661058a5760405162461bcd60e51b815260206004820152602660248201527f4f776e61626c653a206e6577206f776e657220697320746865207a65726f206160448201526564647265737360d01b6064820152608401610149565b61059381610596565b50565b600080546001600160a01b038381166001600160a01b0319831681178455604051919092169283917f8be0079c531659141344cd1fd0a4f28419497f9722a3daafe3b4186f6b6457e09190a35050565b600082601f8301126105f6578081fd5b8135602061060b61060683610883565b610853565b80838252828201915082860187848660051b890101111561062a578586fd5b855b858110156106485781358452928401929084019060010161062c565b5090979650505050505050565b600060208284031215610666578081fd5b8135610671816108e3565b9392505050565b6000806040838503121561068a578081fd5b82356001600160401b03808211156106a0578283fd5b818501915085601f8301126106b3578283fd5b813560206106c361060683610883565b8083825282820191508286018a848660051b89010111156106e2578788fd5b8796505b8487101561070d5780356106f9816108e3565b8352600196909601959183019183016106e6565b5096505086013592505080821115610723578283fd5b50610730858286016105e6565b9150509250929050565b60008060006060848603121561074e578081fd5b83356001600160401b03811115610763578182fd5b8401601f81018613610773578182fd5b8035602061078361060683610883565b8083825282820191508285018a848660051b88010111156107a2578687fd5b8695505b848610156107cd5780356107b9816108e3565b8352600195909501949183019183016107a6565b50999188013598505060409096013595945050505050565b6000602082840312156107f6578081fd5b81518015158114610671578182fd5b6001600160a01b03929092168252602082015260400190565b6020808252818101527f4f776e61626c653a2063616c6c6572206973206e6f7420746865206f776e6572604082015260600190565b604051601f8201601f191681016001600160401b038111828210171561087b5761087b6108cd565b604052919050565b60006001600160401b0382111561089c5761089c6108cd565b5060051b60200190565b60006000198214156108c657634e487b7160e01b81526011600452602481fd5b5060010190565b634e487b7160e01b600052604160045260246000fd5b6001600160a01b038116811461059357600080fdfea26469706673582212207c868abdad7244af2db9e1d1dde0c47e9234543138e04c6e3e550b646137f52364736f6c63430008040033",
  "immutableReferences": {},
  "source": "// SPDX-License-Identifier: MIT\n\npragma solidity >=0.7.0 <0.9.0;\n\nimport \"@openzeppelin/contracts/access/Ownable.sol\";\nimport \"./UnnamedToken.sol\";\n\ncontract AirDrop is Ownable {\n    UnnamedToken public tokenInstance;\n\n    constructor(address _tokenAddress) {\n        tokenInstance = UnnamedToken(_tokenAddress);\n    }\n\n    function doAirDrop(\n        address payable[] memory _address,\n        uint256 _amount,\n        uint256 _ethAmount\n    ) public onlyOwner returns (bool) {\n        uint256 count = _address.length;\n        for (uint256 i = 0; i < count; i++) {\n            /* calling transfer function from contract */\n            tokenInstance.transfer(_address[i], _amount);\n            if (\n                (_address[i].balance == 0) &&\n                (address(this).balance >= _ethAmount)\n            ) {\n                require(_address[i].send(_ethAmount));\n            }\n        }\n    }\n\n    function sendBatch(address[] memory _recipients, uint256[] memory _values)\n        public\n        onlyOwner\n        returns (bool)\n    {\n        require(_recipients.length == _values.length);\n        for (uint256 i = 0; i < _values.length; i++) {\n            tokenInstance.transfer(_recipients[i], _values[i]);\n        }\n        return true;\n    }\n\n    function transferEthToOnwer() public onlyOwner returns (bool res) {\n        return payable(owner()).send(address(this).balance);\n    }\n\n    function kill() public onlyOwner {\n        selfdestruct(payable(owner()));\n    }\n}\n",
  "sourcePath": "/home/ilyadruzh/Documents/druzhcom/UnnamedToken/contracts/AirDrop.sol",
  "compiler": {
    "name": "solc",
    "version": "0.8.4+commit.c7e474f2.Emscripten.clang"
  },
  "schemaVersion": "3.4.1",
  "updatedAt": "2021-08-03T16:05:49.575Z",
  "devdoc": {
    "kind": "dev",
    "methods": {
      "owner()": {
        "details": "Returns the address of the current owner."
      },
      "renounceOwnership()": {
        "details": "Leaves the contract without owner. It will not be possible to call `onlyOwner` functions anymore. Can only be called by the current owner. NOTE: Renouncing ownership will leave the contract without an owner, thereby removing any functionality that is only available to the owner."
      },
      "transferOwnership(address)": {
        "details": "Transfers ownership of the contract to a new account (`newOwner`). Can only be called by the current owner."
      }
    },
    "version": 1
  },
  "userdoc": {
    "kind": "user",
    "methods": {},
    "version": 1
  }
}