{
  "contractName": "AntiWhale",
  "abi": [
    {
      "anonymous": false,
      "inputs": [
        {
          "indexed": true,
          "internalType": "address",
          "name": "previousOwner",
          "type": "address"
        },
        {
          "indexed": true,
          "internalType": "address",
          "name": "newOwner",
          "type": "address"
        }
      ],
      "name": "OwnershipTransferred",
      "type": "event"
    },
    {
      "inputs": [],
      "name": "antiWhaleActivated",
      "outputs": [
        {
          "internalType": "bool",
          "name": "",
          "type": "bool"
        }
      ],
      "stateMutability": "view",
      "type": "function"
    },
    {
      "inputs": [],
      "name": "endDate",
      "outputs": [
        {
          "internalType": "uint256",
          "name": "",
          "type": "uint256"
        }
      ],
      "stateMutability": "view",
      "type": "function"
    },
    {
      "inputs": [],
      "name": "limitWhale",
      "outputs": [
        {
          "internalType": "uint256",
          "name": "",
          "type": "uint256"
        }
      ],
      "stateMutability": "view",
      "type": "function"
    },
    {
      "inputs": [],
      "name": "owner",
      "outputs": [
        {
          "internalType": "address",
          "name": "",
          "type": "address"
        }
      ],
      "stateMutability": "view",
      "type": "function"
    },
    {
      "inputs": [],
      "name": "renounceOwnership",
      "outputs": [],
      "stateMutability": "nonpayable",
      "type": "function"
    },
    {
      "inputs": [],
      "name": "startDate",
      "outputs": [
        {
          "internalType": "uint256",
          "name": "",
          "type": "uint256"
        }
      ],
      "stateMutability": "view",
      "type": "function"
    },
    {
      "inputs": [
        {
          "internalType": "address",
          "name": "newOwner",
          "type": "address"
        }
      ],
      "name": "transferOwnership",
      "outputs": [],
      "stateMutability": "nonpayable",
      "type": "function"
    },
    {
      "inputs": [],
      "name": "activateAntiWhale",
      "outputs": [],
      "stateMutability": "nonpayable",
      "type": "function"
    },
    {
      "inputs": [],
      "name": "deActivateAntiWhale",
      "outputs": [],
      "stateMutability": "nonpayable",
      "type": "function"
    },
    {
      "inputs": [
        {
          "internalType": "uint256",
          "name": "_startDate",
          "type": "uint256"
        },
        {
          "internalType": "uint256",
          "name": "_endDate",
          "type": "uint256"
        },
        {
          "internalType": "uint256",
          "name": "_limitWhale",
          "type": "uint256"
        }
      ],
      "name": "setAntiWhale",
      "outputs": [],
      "stateMutability": "nonpayable",
      "type": "function"
    },
    {
      "inputs": [
        {
          "internalType": "uint256",
          "name": "amount",
          "type": "uint256"
        }
      ],
      "name": "isWhale",
      "outputs": [
        {
          "internalType": "bool",
          "name": "",
          "type": "bool"
        }
      ],
      "stateMutability": "view",
      "type": "function"
    }
  ],
  "bytecode": "0x608060405234801561001057600080fd5b5061001a3361001f565b61006f565b600080546001600160a01b038381166001600160a01b0319831681178455604051919092169283917f8be0079c531659141344cd1fd0a4f28419497f9722a3daafe3b4186f6b6457e09190a35050565b6104d38061007e6000396000f3fe608060405234801561001057600080fd5b50600436106100995760003560e01c80630b97bc861461009e5780631ded36aa146100ba5780636c3efad6146100c35780636dec8ccc146100e6578063715018a6146100f35780638da5cb5b146100fd5780638fedda411461011d578063b8e7cd5e14610125578063c1c3a9c014610138578063c24a0f8b14610140578063f2fde38b14610149575b600080fd5b6100a760015481565b6040519081526020015b60405180910390f35b6100a760035481565b6100d66100d1366004610425565b61015c565b60405190151581526020016100b1565b6004546100d69060ff1681565b6100fb6101cb565b005b61010561020f565b6040516001600160a01b0390911681526020016100b1565b6100fb61021e565b6100fb61013336600461043d565b61026d565b6100fb6102b9565b6100a760025481565b6100fb6101573660046103f7565b610307565b600061016661020f565b6001600160a01b0316336001600160a01b03161480610188575060045460ff16155b8061019557506003548211155b156101a257506000919050565b60015442101580156101b657506002544211155b156101c357506001919050565b506000919050565b336101d461020f565b6001600160a01b0316146102035760405162461bcd60e51b81526004016101fa90610468565b60405180910390fd5b61020d60006103a7565b565b6000546001600160a01b031690565b3361022761020f565b6001600160a01b03161461024d5760405162461bcd60e51b81526004016101fa90610468565b60045460ff16151560011461026157600080fd5b6004805460ff19169055565b3361027661020f565b6001600160a01b03161461029c5760405162461bcd60e51b81526004016101fa90610468565b60019283556002919091556003556004805460ff19169091179055565b336102c261020f565b6001600160a01b0316146102e85760405162461bcd60e51b81526004016101fa90610468565b60045460ff16156102f857600080fd5b6004805460ff19166001179055565b3361031061020f565b6001600160a01b0316146103365760405162461bcd60e51b81526004016101fa90610468565b6001600160a01b03811661039b5760405162461bcd60e51b815260206004820152602660248201527f4f776e61626c653a206e6577206f776e657220697320746865207a65726f206160448201526564647265737360d01b60648201526084016101fa565b6103a4816103a7565b50565b600080546001600160a01b038381166001600160a01b0319831681178455604051919092169283917f8be0079c531659141344cd1fd0a4f28419497f9722a3daafe3b4186f6b6457e09190a35050565b600060208284031215610408578081fd5b81356001600160a01b038116811461041e578182fd5b9392505050565b600060208284031215610436578081fd5b5035919050565b600080600060608486031215610451578182fd5b505081359360208301359350604090920135919050565b6020808252818101527f4f776e61626c653a2063616c6c6572206973206e6f7420746865206f776e657260408201526060019056fea2646970667358221220b2a3793d93bf1cc64687b4a87932a6c941724d115bf5138dfd729386e93be4ab64736f6c63430008040033",
  "immutableReferences": {},
  "source": "// SPDX-License-Identifier: MIT\n\npragma solidity >=0.7.0 <0.9.0;\n\nimport \"@openzeppelin/contracts/access/Ownable.sol\";\n\ncontract AntiWhale is Ownable {\n    uint256 public startDate;\n    uint256 public endDate;\n    uint256 public limitWhale;\n    bool public antiWhaleActivated;\n\n    function activateAntiWhale() public onlyOwner {\n        require(antiWhaleActivated == false);\n        antiWhaleActivated = true;\n    }\n\n    function deActivateAntiWhale() public onlyOwner {\n        require(antiWhaleActivated == true);\n        antiWhaleActivated = false;\n    }\n\n    function setAntiWhale(\n        uint256 _startDate,\n        uint256 _endDate,\n        uint256 _limitWhale\n    ) public onlyOwner {\n        startDate = _startDate;\n        endDate = _endDate;\n        limitWhale = _limitWhale;\n        antiWhaleActivated = true;\n    }\n\n    function isWhale(uint256 amount) public view returns (bool) {\n        if (\n            msg.sender == owner() ||\n            antiWhaleActivated == false ||\n            amount <= limitWhale\n        ) return false;\n\n        if (block.timestamp >= startDate && block.timestamp <= endDate)\n            return true;\n\n        return false;\n    }\n}\n",
  "sourcePath": "/home/ilyadruzh/Documents/druzhcom/UnnamedToken/contracts/AntiWhale.sol",
  "compiler": {
    "name": "solc",
    "version": "0.8.4+commit.c7e474f2.Emscripten.clang"
  },
  "schemaVersion": "3.4.1",
  "updatedAt": "2021-08-03T15:55:57.297Z",
  "devdoc": {
    "kind": "dev",
    "methods": {
      "owner()": {
        "details": "Returns the address of the current owner."
      },
      "renounceOwnership()": {
        "details": "Leaves the contract without owner. It will not be possible to call `onlyOwner` functions anymore. Can only be called by the current owner. NOTE: Renouncing ownership will leave the contract without an owner, thereby removing any functionality that is only available to the owner."
      },
      "transferOwnership(address)": {
        "details": "Transfers ownership of the contract to a new account (`newOwner`). Can only be called by the current owner."
      }
    },
    "version": 1
  },
  "userdoc": {
    "kind": "user",
    "methods": {},
    "version": 1
  }
}