{
  "contractName": "MultiSig",
  "abi": [
    {
      "inputs": [
        {
          "internalType": "uint256",
          "name": "threshold_",
          "type": "uint256"
        },
        {
          "internalType": "address[]",
          "name": "owners_",
          "type": "address[]"
        },
        {
          "internalType": "uint256",
          "name": "chainId",
          "type": "uint256"
        }
      ],
      "stateMutability": "nonpayable",
      "type": "constructor"
    },
    {
      "inputs": [],
      "name": "nonce",
      "outputs": [
        {
          "internalType": "uint256",
          "name": "",
          "type": "uint256"
        }
      ],
      "stateMutability": "view",
      "type": "function"
    },
    {
      "inputs": [
        {
          "internalType": "uint256",
          "name": "",
          "type": "uint256"
        }
      ],
      "name": "ownersArr",
      "outputs": [
        {
          "internalType": "address",
          "name": "",
          "type": "address"
        }
      ],
      "stateMutability": "view",
      "type": "function"
    },
    {
      "inputs": [],
      "name": "threshold",
      "outputs": [
        {
          "internalType": "uint256",
          "name": "",
          "type": "uint256"
        }
      ],
      "stateMutability": "view",
      "type": "function"
    },
    {
      "inputs": [
        {
          "internalType": "uint8[]",
          "name": "sigV",
          "type": "uint8[]"
        },
        {
          "internalType": "bytes32[]",
          "name": "sigR",
          "type": "bytes32[]"
        },
        {
          "internalType": "bytes32[]",
          "name": "sigS",
          "type": "bytes32[]"
        },
        {
          "internalType": "address",
          "name": "destination",
          "type": "address"
        },
        {
          "internalType": "uint256",
          "name": "value",
          "type": "uint256"
        },
        {
          "internalType": "bytes",
          "name": "data",
          "type": "bytes"
        },
        {
          "internalType": "address",
          "name": "executor",
          "type": "address"
        },
        {
          "internalType": "uint256",
          "name": "gasLimit",
          "type": "uint256"
        }
      ],
      "name": "execute",
      "outputs": [],
      "stateMutability": "nonpayable",
      "type": "function"
    }
  ],
  "bytecode": "0x60806040523480156200001157600080fd5b5060405162000acf38038062000acf8339810160408190526200003491620002e9565b600a82511115801562000048575081518311155b8015620000555750600083115b6200005f57600080fd5b6000805b83518110156200015b57816001600160a01b03168482815181106200009857634e487b7160e01b600052603260045260246000fd5b60200260200101516001600160a01b031611620000b457600080fd5b600160026000868481518110620000db57634e487b7160e01b600052603260045260246000fd5b60200260200101516001600160a01b03166001600160a01b0316815260200190815260200160002060006101000a81548160ff0219169083151502179055508381815181106200013b57634e487b7160e01b600052603260045260246000fd5b6020026020010151915080806200015290620003d4565b91505062000063565b508251620001719060039060208601906200024b565b506001849055604080517fd87cd6ef79d4e2b95e15ce8abf732db51ec771f1ca2edccf22a46c729ac5647260208201527fb7a0bfa1b79f2443f4d73ebb9259cddbcd510b18be6fc4da7d1aa7b1786e73e6918101919091527fc89efdaa54c0f20c7adf612882df0950f5a951637e0307cdcb4c672f298b8bc66060820152608081018390523060a08201527f251543af6a222378665a76fe38dbceae4871a070b7fdaf5c6c30cf758dc33cc060c082015260e001604051602081830303815290604052805190602001206004819055505050505062000412565b828054828255906000526020600020908101928215620002a3579160200282015b82811115620002a357825182546001600160a01b0319166001600160a01b039091161782556020909201916001909101906200026c565b50620002b1929150620002b5565b5090565b5b80821115620002b15760008155600101620002b6565b80516001600160a01b0381168114620002e457600080fd5b919050565b600080600060608486031215620002fe578283fd5b8351602080860151919450906001600160401b03808211156200031f578485fd5b818701915087601f83011262000333578485fd5b815181811115620003485762000348620003fc565b8060051b604051601f19603f83011681018181108582111715620003705762000370620003fc565b604052828152858101935084860182860187018c10156200038f578889fd5b8895505b83861015620003bc57620003a781620002cc565b85526001959095019493860193860162000393565b50809750505050505050604084015190509250925092565b6000600019821415620003f557634e487b7160e01b81526011600452602481fd5b5060010190565b634e487b7160e01b600052604160045260246000fd5b6106ad80620004226000396000f3fe608060405234801561001057600080fd5b506004361061004c5760003560e01c806342cde4e814610051578063a0ab96531461006d578063aa5df9e214610082578063affed0e0146100ad575b600080fd5b61005a60015481565b6040519081526020015b60405180910390f35b61008061007b3660046104d1565b6100b6565b005b6100956100903660046105ad565b610347565b6040516001600160a01b039091168152602001610064565b61005a60005481565b6001548751146100c557600080fd5b855187511480156100d7575087518751145b6100e057600080fd5b6001600160a01b0382163314806100fe57506001600160a01b038216155b61010757600080fd5b825160208085019190912060008054604080517f3ee892349ae4bbe61dce18f95115b5dc02daf49204cc602458cd4c1f540d56d7818701526001600160a01b038b811682840152606082018b9052608082019590955260a081019290925292861660c082015260e0808201869052835180830390910181526101008201845280519085012060045461190160f01b6101208401526101228301526101428083018290528451808403909101815261016290920190935280519301929092209091805b60015481101561030a5760006001848e84815181106101f857634e487b7160e01b600052603260045260246000fd5b60200260200101518e858151811061022057634e487b7160e01b600052603260045260246000fd5b60200260200101518e868151811061024857634e487b7160e01b600052603260045260246000fd5b602002602001015160405160008152602001604052604051610286949392919093845260ff9290921660208401526040830152606082015260800190565b6020604051602081039080840390855afa1580156102a8573d6000803e3d6000fd5b505050602060405103519050826001600160a01b0316816001600160a01b03161180156102ed57506001600160a01b03811660009081526002602052604090205460ff165b6102f657600080fd5b91508061030281610630565b9150506101c9565b50600054610319906001610618565b60008190555060008080885160208a018b8d8af190508061033957600080fd5b505050505050505050505050565b6003818154811061035757600080fd5b6000918252602090912001546001600160a01b0316905081565b80356001600160a01b038116811461038857600080fd5b919050565b600082601f83011261039d578081fd5b813560206103b26103ad836105f5565b6105c5565b80838252828201915082860187848660051b89010111156103d1578586fd5b855b858110156103ef578135845292840192908401906001016103d3565b5090979650505050505050565b600082601f83011261040c578081fd5b8135602061041c6103ad836105f5565b80838252828201915082860187848660051b890101111561043b578586fd5b855b858110156103ef57813560ff81168114610455578788fd5b8452928401929084019060010161043d565b600082601f830112610477578081fd5b81356001600160401b0381111561049057610490610661565b6104a3601f8201601f19166020016105c5565b8181528460208386010111156104b7578283fd5b816020850160208301379081016020019190915292915050565b600080600080600080600080610100898b0312156104ed578384fd5b88356001600160401b0380821115610503578586fd5b61050f8c838d016103fc565b995060208b0135915080821115610524578586fd5b6105308c838d0161038d565b985060408b0135915080821115610545578586fd5b6105518c838d0161038d565b975061055f60608c01610371565b965060808b0135955060a08b013591508082111561057b578485fd5b506105888b828c01610467565b93505061059760c08a01610371565b915060e089013590509295985092959890939650565b6000602082840312156105be578081fd5b5035919050565b604051601f8201601f191681016001600160401b03811182821017156105ed576105ed610661565b604052919050565b60006001600160401b0382111561060e5761060e610661565b5060051b60200190565b6000821982111561062b5761062b61064b565b500190565b60006000198214156106445761064461064b565b5060010190565b634e487b7160e01b600052601160045260246000fd5b634e487b7160e01b600052604160045260246000fdfea2646970667358221220d252e18f83f19bffbb777aa49554e2e767f518eb50a0db3ae817a3798718c5e864736f6c63430008040033",
  "immutableReferences": {},
  "source": "// SPDX-License-Identifier: MIT\n\npragma solidity >=0.7.0 <0.9.0;\n\ncontract MultiSig {\n    bytes32 constant EIP712DOMAINTYPE_HASH =\n        0xd87cd6ef79d4e2b95e15ce8abf732db51ec771f1ca2edccf22a46c729ac56472;\n\n    bytes32 constant NAME_HASH =\n        0xb7a0bfa1b79f2443f4d73ebb9259cddbcd510b18be6fc4da7d1aa7b1786e73e6;\n\n    bytes32 constant VERSION_HASH =\n        0xc89efdaa54c0f20c7adf612882df0950f5a951637e0307cdcb4c672f298b8bc6;\n\n    bytes32 constant TXTYPE_HASH =\n        0x3ee892349ae4bbe61dce18f95115b5dc02daf49204cc602458cd4c1f540d56d7;\n\n    bytes32 constant SALT =\n        0x251543af6a222378665a76fe38dbceae4871a070b7fdaf5c6c30cf758dc33cc0;\n\n    uint256 public nonce; // (only) mutable state\n    uint256 public threshold; // immutable state\n    mapping(address => bool) isOwner; // immutable state\n    address[] public ownersArr; // immutable state\n\n    bytes32 DOMAIN_SEPARATOR; // hash for EIP712, computed from contract address\n\n    constructor(\n        uint256 threshold_,\n        address[] memory owners_,\n        uint256 chainId\n    ) public {\n        require(\n            owners_.length <= 10 &&\n                threshold_ <= owners_.length &&\n                threshold_ > 0\n        );\n\n        address lastAdd = address(0);\n        for (uint256 i = 0; i < owners_.length; i++) {\n            require(owners_[i] > lastAdd);\n            isOwner[owners_[i]] = true;\n            lastAdd = owners_[i];\n        }\n        ownersArr = owners_;\n        threshold = threshold_;\n\n        DOMAIN_SEPARATOR = keccak256(\n            abi.encode(\n                EIP712DOMAINTYPE_HASH,\n                NAME_HASH,\n                VERSION_HASH,\n                chainId,\n                this,\n                SALT\n            )\n        );\n    }\n\n    function execute(\n        uint8[] memory sigV,\n        bytes32[] memory sigR,\n        bytes32[] memory sigS,\n        address destination,\n        uint256 value,\n        bytes memory data,\n        address executor,\n        uint256 gasLimit\n    ) public {\n        require(sigR.length == threshold);\n        require(sigR.length == sigS.length && sigR.length == sigV.length);\n        require(executor == msg.sender || executor == address(0));\n\n        bytes32 txInputHash = keccak256(\n            abi.encode(\n                TXTYPE_HASH,\n                destination,\n                value,\n                keccak256(data),\n                nonce,\n                executor,\n                gasLimit\n            )\n        );\n        bytes32 totalHash = keccak256(\n            abi.encodePacked(\"\\x19\\x01\", DOMAIN_SEPARATOR, txInputHash)\n        );\n\n        address lastAdd = address(0); // cannot have address(0) as an owner\n        for (uint256 i = 0; i < threshold; i++) {\n            address recovered = ecrecover(totalHash, sigV[i], sigR[i], sigS[i]);\n            require(recovered > lastAdd && isOwner[recovered]);\n            lastAdd = recovered;\n        }\n\n        nonce = nonce + 1;\n        bool success = false;\n        assembly {\n            success := call(\n                gasLimit,\n                destination,\n                value,\n                add(data, 0x20),\n                mload(data),\n                0,\n                0\n            )\n        }\n        require(success);\n    }\n}\n",
  "sourcePath": "/home/ilyadruzh/Documents/druzhcom/UnnamedToken/contracts/MultiSig.sol",
  "compiler": {
    "name": "solc",
    "version": "0.8.4+commit.c7e474f2.Emscripten.clang"
  },
  "schemaVersion": "3.4.1",
  "updatedAt": "2021-08-03T15:55:57.305Z",
  "devdoc": {
    "kind": "dev",
    "methods": {},
    "version": 1
  },
  "userdoc": {
    "kind": "user",
    "methods": {},
    "version": 1
  }
}