{
  "contractName": "UnnamedToken",
  "abi": [
    {
      "inputs": [],
      "stateMutability": "nonpayable",
      "type": "constructor"
    },
    {
      "anonymous": false,
      "inputs": [
        {
          "indexed": true,
          "internalType": "address",
          "name": "owner",
          "type": "address"
        },
        {
          "indexed": true,
          "internalType": "address",
          "name": "spender",
          "type": "address"
        },
        {
          "indexed": false,
          "internalType": "uint256",
          "name": "value",
          "type": "uint256"
        }
      ],
      "name": "Approval",
      "type": "event"
    },
    {
      "anonymous": false,
      "inputs": [
        {
          "indexed": true,
          "internalType": "address",
          "name": "previousOwner",
          "type": "address"
        },
        {
          "indexed": true,
          "internalType": "address",
          "name": "newOwner",
          "type": "address"
        }
      ],
      "name": "OwnershipTransferred",
      "type": "event"
    },
    {
      "anonymous": false,
      "inputs": [
        {
          "indexed": false,
          "internalType": "address",
          "name": "account",
          "type": "address"
        }
      ],
      "name": "Paused",
      "type": "event"
    },
    {
      "anonymous": false,
      "inputs": [
        {
          "indexed": true,
          "internalType": "address",
          "name": "from",
          "type": "address"
        },
        {
          "indexed": true,
          "internalType": "address",
          "name": "to",
          "type": "address"
        },
        {
          "indexed": false,
          "internalType": "uint256",
          "name": "value",
          "type": "uint256"
        }
      ],
      "name": "Transfer",
      "type": "event"
    },
    {
      "anonymous": false,
      "inputs": [
        {
          "indexed": false,
          "internalType": "address",
          "name": "account",
          "type": "address"
        }
      ],
      "name": "Unpaused",
      "type": "event"
    },
    {
      "anonymous": false,
      "inputs": [
        {
          "indexed": true,
          "internalType": "address",
          "name": "account",
          "type": "address"
        },
        {
          "indexed": false,
          "internalType": "bool",
          "name": "isWhitelisted",
          "type": "bool"
        }
      ],
      "name": "Whitelisted",
      "type": "event"
    },
    {
      "inputs": [],
      "name": "_liquidityFee",
      "outputs": [
        {
          "internalType": "uint256",
          "name": "",
          "type": "uint256"
        }
      ],
      "stateMutability": "view",
      "type": "function"
    },
    {
      "inputs": [],
      "name": "_taxFee",
      "outputs": [
        {
          "internalType": "uint256",
          "name": "",
          "type": "uint256"
        }
      ],
      "stateMutability": "view",
      "type": "function"
    },
    {
      "inputs": [],
      "name": "activateAntiWhale",
      "outputs": [],
      "stateMutability": "nonpayable",
      "type": "function"
    },
    {
      "inputs": [
        {
          "internalType": "address",
          "name": "_address",
          "type": "address"
        }
      ],
      "name": "addAddress",
      "outputs": [],
      "stateMutability": "nonpayable",
      "type": "function"
    },
    {
      "inputs": [],
      "name": "antiWhaleActivated",
      "outputs": [
        {
          "internalType": "bool",
          "name": "",
          "type": "bool"
        }
      ],
      "stateMutability": "view",
      "type": "function"
    },
    {
      "inputs": [],
      "name": "deActivateAntiWhale",
      "outputs": [],
      "stateMutability": "nonpayable",
      "type": "function"
    },
    {
      "inputs": [],
      "name": "endDate",
      "outputs": [
        {
          "internalType": "uint256",
          "name": "",
          "type": "uint256"
        }
      ],
      "stateMutability": "view",
      "type": "function"
    },
    {
      "inputs": [],
      "name": "isPaused",
      "outputs": [
        {
          "internalType": "bool",
          "name": "",
          "type": "bool"
        }
      ],
      "stateMutability": "view",
      "type": "function"
    },
    {
      "inputs": [
        {
          "internalType": "uint256",
          "name": "amount",
          "type": "uint256"
        }
      ],
      "name": "isWhale",
      "outputs": [
        {
          "internalType": "bool",
          "name": "",
          "type": "bool"
        }
      ],
      "stateMutability": "view",
      "type": "function"
    },
    {
      "inputs": [],
      "name": "limitWhale",
      "outputs": [
        {
          "internalType": "uint256",
          "name": "",
          "type": "uint256"
        }
      ],
      "stateMutability": "view",
      "type": "function"
    },
    {
      "inputs": [],
      "name": "owner",
      "outputs": [
        {
          "internalType": "address",
          "name": "",
          "type": "address"
        }
      ],
      "stateMutability": "view",
      "type": "function"
    },
    {
      "inputs": [],
      "name": "paused",
      "outputs": [
        {
          "internalType": "bool",
          "name": "",
          "type": "bool"
        }
      ],
      "stateMutability": "view",
      "type": "function"
    },
    {
      "inputs": [
        {
          "internalType": "address",
          "name": "_address",
          "type": "address"
        }
      ],
      "name": "removeAddress",
      "outputs": [],
      "stateMutability": "nonpayable",
      "type": "function"
    },
    {
      "inputs": [],
      "name": "renounceOwnership",
      "outputs": [],
      "stateMutability": "nonpayable",
      "type": "function"
    },
    {
      "inputs": [
        {
          "internalType": "uint256",
          "name": "_startDate",
          "type": "uint256"
        },
        {
          "internalType": "uint256",
          "name": "_endDate",
          "type": "uint256"
        },
        {
          "internalType": "uint256",
          "name": "_limitWhale",
          "type": "uint256"
        }
      ],
      "name": "setAntiWhale",
      "outputs": [],
      "stateMutability": "nonpayable",
      "type": "function"
    },
    {
      "inputs": [],
      "name": "startDate",
      "outputs": [
        {
          "internalType": "uint256",
          "name": "",
          "type": "uint256"
        }
      ],
      "stateMutability": "view",
      "type": "function"
    },
    {
      "inputs": [
        {
          "internalType": "address",
          "name": "newOwner",
          "type": "address"
        }
      ],
      "name": "transferOwnership",
      "outputs": [],
      "stateMutability": "nonpayable",
      "type": "function"
    },
    {
      "inputs": [
        {
          "internalType": "address",
          "name": "_address",
          "type": "address"
        }
      ],
      "name": "whitelisted",
      "outputs": [
        {
          "internalType": "bool",
          "name": "",
          "type": "bool"
        }
      ],
      "stateMutability": "view",
      "type": "function"
    },
    {
      "inputs": [],
      "name": "name",
      "outputs": [
        {
          "internalType": "string",
          "name": "",
          "type": "string"
        }
      ],
      "stateMutability": "view",
      "type": "function"
    },
    {
      "inputs": [],
      "name": "symbol",
      "outputs": [
        {
          "internalType": "string",
          "name": "",
          "type": "string"
        }
      ],
      "stateMutability": "view",
      "type": "function"
    },
    {
      "inputs": [],
      "name": "decimals",
      "outputs": [
        {
          "internalType": "uint8",
          "name": "",
          "type": "uint8"
        }
      ],
      "stateMutability": "view",
      "type": "function"
    },
    {
      "inputs": [],
      "name": "totalSupply",
      "outputs": [
        {
          "internalType": "uint256",
          "name": "",
          "type": "uint256"
        }
      ],
      "stateMutability": "view",
      "type": "function"
    },
    {
      "inputs": [
        {
          "internalType": "address",
          "name": "account",
          "type": "address"
        }
      ],
      "name": "balanceOf",
      "outputs": [
        {
          "internalType": "uint256",
          "name": "",
          "type": "uint256"
        }
      ],
      "stateMutability": "view",
      "type": "function"
    },
    {
      "inputs": [
        {
          "internalType": "address",
          "name": "recipient",
          "type": "address"
        },
        {
          "internalType": "uint256",
          "name": "amount",
          "type": "uint256"
        }
      ],
      "name": "transfer",
      "outputs": [
        {
          "internalType": "bool",
          "name": "",
          "type": "bool"
        }
      ],
      "stateMutability": "nonpayable",
      "type": "function"
    },
    {
      "inputs": [
        {
          "internalType": "uint256",
          "name": "taxFee",
          "type": "uint256"
        }
      ],
      "name": "setTaxFeePercent",
      "outputs": [],
      "stateMutability": "nonpayable",
      "type": "function"
    },
    {
      "inputs": [
        {
          "internalType": "uint256",
          "name": "liquidityFee",
          "type": "uint256"
        }
      ],
      "name": "setLiquidityFeePercent",
      "outputs": [],
      "stateMutability": "nonpayable",
      "type": "function"
    },
    {
      "inputs": [
        {
          "internalType": "address",
          "name": "owner",
          "type": "address"
        },
        {
          "internalType": "address",
          "name": "spender",
          "type": "address"
        }
      ],
      "name": "allowance",
      "outputs": [
        {
          "internalType": "uint256",
          "name": "",
          "type": "uint256"
        }
      ],
      "stateMutability": "view",
      "type": "function"
    },
    {
      "inputs": [
        {
          "internalType": "address",
          "name": "spender",
          "type": "address"
        },
        {
          "internalType": "uint256",
          "name": "amount",
          "type": "uint256"
        }
      ],
      "name": "approve",
      "outputs": [
        {
          "internalType": "bool",
          "name": "",
          "type": "bool"
        }
      ],
      "stateMutability": "nonpayable",
      "type": "function"
    },
    {
      "inputs": [
        {
          "internalType": "address",
          "name": "sender",
          "type": "address"
        },
        {
          "internalType": "address",
          "name": "recipient",
          "type": "address"
        },
        {
          "internalType": "uint256",
          "name": "amount",
          "type": "uint256"
        }
      ],
      "name": "transferFrom",
      "outputs": [
        {
          "internalType": "bool",
          "name": "",
          "type": "bool"
        }
      ],
      "stateMutability": "nonpayable",
      "type": "function"
    },
    {
      "inputs": [
        {
          "internalType": "address",
          "name": "spender",
          "type": "address"
        },
        {
          "internalType": "uint256",
          "name": "addedValue",
          "type": "uint256"
        }
      ],
      "name": "increaseAllowance",
      "outputs": [
        {
          "internalType": "bool",
          "name": "",
          "type": "bool"
        }
      ],
      "stateMutability": "nonpayable",
      "type": "function"
    },
    {
      "inputs": [
        {
          "internalType": "address",
          "name": "spender",
          "type": "address"
        },
        {
          "internalType": "uint256",
          "name": "subtractedValue",
          "type": "uint256"
        }
      ],
      "name": "decreaseAllowance",
      "outputs": [
        {
          "internalType": "bool",
          "name": "",
          "type": "bool"
        }
      ],
      "stateMutability": "nonpayable",
      "type": "function"
    }
  ],
  "bytecode": "0x60c06040526007608081905266155b9b985b595960ca1b60a09081526200002a916008919062000117565b50604080518082019091526003808252622aa72760e91b6020909201918252620000579160099162000117565b50600a805460ff191660121790556005600b819055600c556b033b2e3c9fd0803ce8000000600d553480156200008c57600080fd5b506200009833620000c7565b6004805461ff00191690553360009081526006602052604090206b033b2e3c9fd0803ce80000009055620001fa565b600080546001600160a01b038381166001600160a01b0319831681178455604051919092169283917f8be0079c531659141344cd1fd0a4f28419497f9722a3daafe3b4186f6b6457e09190a35050565b8280546200012590620001bd565b90600052602060002090601f01602090048101928262000149576000855562000194565b82601f106200016457805160ff191683800117855562000194565b8280016001018555821562000194579182015b828111156200019457825182559160200191906001019062000177565b50620001a2929150620001a6565b5090565b5b80821115620001a25760008155600101620001a7565b600181811c90821680620001d257607f821691505b60208210811415620001f457634e487b7160e01b600052602260045260246000fd5b50919050565b61123d806200020a6000396000f3fe608060405234801561001057600080fd5b50600436106101755760003560e01c8063061c82d01461017a57806306fdde031461018f578063095ea7b3146101ad5780630b97bc86146101d057806318160ddd146101e75780631ded36aa146101ef57806323b872dd146101f8578063313ce5671461020b57806338eada1c1461021a578063395093511461022d5780633b124fe7146102405780634ba79dfe146102495780635c975abb1461025c5780636bc87c3a1461026c5780636c3efad6146102755780636dec8ccc1461028857806370a0823114610295578063715018a6146102be5780638da5cb5b146102c65780638ee88c53146102e65780638fedda41146102f957806395d89b4114610301578063a457c2d714610309578063a9059cbb1461031c578063b187bd261461032f578063b8e7cd5e14610340578063c1c3a9c014610353578063c24a0f8b1461035b578063d936547e14610364578063dd62ed3e14610377578063f2fde38b146103b0575b600080fd5b61018d61018836600461103d565b6103c3565b005b610197610400565b6040516101a49190611080565b60405180910390f35b6101c06101bb366004611014565b610492565b60405190151581526020016101a4565b6101d960015481565b6040519081526020016101a4565b600d546101d9565b6101d960035481565b6101c0610206366004610fd9565b6104a8565b604051601281526020016101a4565b61018d610228366004610f8d565b610559565b6101c061023b366004611014565b61060f565b6101d9600b5481565b61018d610257366004610f8d565b610645565b600454610100900460ff166101c0565b6101d9600c5481565b6101c061028336600461103d565b6106d6565b6004546101c09060ff1681565b6101d96102a3366004610f8d565b6001600160a01b031660009081526006602052604090205490565b61018d610745565b6102ce610780565b6040516001600160a01b0390911681526020016101a4565b61018d6102f436600461103d565b61078f565b61018d6107c3565b610197610812565b6101c0610317366004611014565b610821565b6101c061032a366004611014565b6108bc565b60045462010000900460ff166101c0565b61018d61034e366004611055565b6108c9565b61018d610915565b6101d960025481565b6101c0610372366004610f8d565b610963565b6101d9610385366004610fa7565b6001600160a01b03918216600090815260076020908152604080832093909416825291909152205490565b61018d6103be366004610f8d565b61099d565b336103cc610780565b6001600160a01b0316146103fb5760405162461bcd60e51b81526004016103f2906110d3565b60405180910390fd5b600b55565b60606008805461040f90611176565b80601f016020809104026020016040519081016040528092919081815260200182805461043b90611176565b80156104885780601f1061045d57610100808354040283529160200191610488565b820191906000526020600020905b81548152906001019060200180831161046b57829003601f168201915b5050505050905090565b600061049f338484610a3a565b50600192915050565b60006104b5848484610b5f565b6001600160a01b03841660009081526007602090815260408083203384529091529020548281101561053a5760405162461bcd60e51b815260206004820152602860248201527f45524332303a207472616e7366657220616d6f756e74206578636565647320616044820152676c6c6f77616e636560c01b60648201526084016103f2565b61054e85336105498487610d69565b610a3a565b506001949350505050565b33610562610780565b6001600160a01b0316146105885760405162461bcd60e51b81526004016103f2906110d3565b6001600160a01b03811660009081526005602052604090205460ff161515600114156105b357600080fd5b600454610100900460ff1661060c576001600160a01b038116600081815260056020908152604091829020805460ff1916600190811790915591519182526000805160206111c883398151915291015b60405180910390a25b50565b3360008181526007602090815260408083206001600160a01b0387168452909152812054909161049f9185906105499086610d7c565b3361064e610780565b6001600160a01b0316146106745760405162461bcd60e51b81526004016103f2906110d3565b6001600160a01b03811660009081526005602052604090205460ff1661069957600080fd5b6001600160a01b0381166000818152600560209081526040808320805460ff19169055519182526000805160206111c88339815191529101610603565b60006106e0610780565b6001600160a01b0316336001600160a01b03161480610702575060045460ff16155b8061070f57506003548211155b1561071c57506000919050565b600154421015801561073057506002544211155b1561073d57506001919050565b506000919050565b3361074e610780565b6001600160a01b0316146107745760405162461bcd60e51b81526004016103f2906110d3565b61077e6000610d88565b565b6000546001600160a01b031690565b33610798610780565b6001600160a01b0316146107be5760405162461bcd60e51b81526004016103f2906110d3565b600c55565b336107cc610780565b6001600160a01b0316146107f25760405162461bcd60e51b81526004016103f2906110d3565b60045460ff16151560011461080657600080fd5b6004805460ff19169055565b60606009805461040f90611176565b3360009081526007602090815260408083206001600160a01b0386168452909152812054828110156108a35760405162461bcd60e51b815260206004820152602560248201527f45524332303a2064656372656173656420616c6c6f77616e63652062656c6f77604482015264207a65726f60d81b60648201526084016103f2565b6108b23385610549868561115f565b5060019392505050565b600061049f338484610b5f565b336108d2610780565b6001600160a01b0316146108f85760405162461bcd60e51b81526004016103f2906110d3565b60019283556002919091556003556004805460ff19169091179055565b3361091e610780565b6001600160a01b0316146109445760405162461bcd60e51b81526004016103f2906110d3565b60045460ff161561095457600080fd5b6004805460ff19166001179055565b600454600090610100900460ff161561097e57506001919050565b506001600160a01b031660009081526005602052604090205460ff1690565b336109a6610780565b6001600160a01b0316146109cc5760405162461bcd60e51b81526004016103f2906110d3565b6001600160a01b038116610a315760405162461bcd60e51b815260206004820152602660248201527f4f776e61626c653a206e6577206f776e657220697320746865207a65726f206160448201526564647265737360d01b60648201526084016103f2565b61060c81610d88565b6001600160a01b038316610a9c5760405162461bcd60e51b8152602060048201526024808201527f45524332303a20617070726f76652066726f6d20746865207a65726f206164646044820152637265737360e01b60648201526084016103f2565b6001600160a01b038216610afd5760405162461bcd60e51b815260206004820152602260248201527f45524332303a20617070726f766520746f20746865207a65726f206164647265604482015261737360f01b60648201526084016103f2565b6001600160a01b0383811660008181526007602090815260408083209487168084529482529182902085905590518481527f8c5be1e5ebec7d5bd14f71427d1e84f3dd0314c0f7b2291e5b200ac8c7c3b92591015b60405180910390a3505050565b6001600160a01b038316610bc35760405162461bcd60e51b815260206004820152602560248201527f45524332303a207472616e736665722066726f6d20746865207a65726f206164604482015264647265737360d81b60648201526084016103f2565b6000610bce82610dd8565b90506000610bdb83610e00565b90506001600160a01b038416610bfa57610bf58584610e1c565b610d62565b610c03836106d6565b15610c4d5760405162461bcd60e51b815260206004820152601a6024820152794572726f723a204e6f2074696d6520666f72207768616c65732160301b60448201526064016103f2565b6001600160a01b03851660009081526006602052604090205483811015610cc55760405162461bcd60e51b815260206004820152602660248201527f45524332303a207472616e7366657220616d6f756e7420657863656564732062604482015265616c616e636560d01b60648201526084016103f2565b60045462010000900460ff16158015610ce25750610ce285610963565b15610d25576001600160a01b038516600090815260066020526040902054610d0b908590611108565b6001600160a01b0386166000908152600660205260409020555b846001600160a01b0316866001600160a01b03166000805160206111e883398151915286604051610d5891815260200190565b60405180910390a3505b5050505050565b6000610d75828461115f565b9392505050565b6000610d758284611108565b600080546001600160a01b038381166001600160a01b0319831681178455604051919092169283917f8be0079c531659141344cd1fd0a4f28419497f9722a3daafe3b4186f6b6457e09190a35050565b6000610dfa6064610df4600b5485610f5990919063ffffffff16565b90610f65565b92915050565b6000610dfa6064610df4600c5485610f5990919063ffffffff16565b6001600160a01b038216610e7c5760405162461bcd60e51b815260206004820152602160248201527f45524332303a206275726e2066726f6d20746865207a65726f206164647265736044820152607360f81b60648201526084016103f2565b6001600160a01b03821660009081526006602052604090205481811015610ef05760405162461bcd60e51b815260206004820152602260248201527f45524332303a206275726e20616d6f756e7420657863656564732062616c616e604482015261636560f01b60648201526084016103f2565b610efa828261115f565b6001600160a01b038416600090815260066020526040812091909155600d8054849290610f2890849061115f565b90915550506040518281526000906001600160a01b038516906000805160206111e883398151915290602001610b52565b6000610d758284611140565b6000610d758284611120565b80356001600160a01b0381168114610f8857600080fd5b919050565b600060208284031215610f9e578081fd5b610d7582610f71565b60008060408385031215610fb9578081fd5b610fc283610f71565b9150610fd060208401610f71565b90509250929050565b600080600060608486031215610fed578081fd5b610ff684610f71565b925061100460208501610f71565b9150604084013590509250925092565b60008060408385031215611026578182fd5b61102f83610f71565b946020939093013593505050565b60006020828403121561104e578081fd5b5035919050565b600080600060608486031215611069578283fd5b505081359360208301359350604090920135919050565b6000602080835283518082850152825b818110156110ac57858101830151858201604001528201611090565b818111156110bd5783604083870101525b50601f01601f1916929092016040019392505050565b6020808252818101527f4f776e61626c653a2063616c6c6572206973206e6f7420746865206f776e6572604082015260600190565b6000821982111561111b5761111b6111b1565b500190565b60008261113b57634e487b7160e01b81526012600452602481fd5b500490565b600081600019048311821515161561115a5761115a6111b1565b500290565b600082821015611171576111716111b1565b500390565b600181811c9082168061118a57607f821691505b602082108114156111ab57634e487b7160e01b600052602260045260246000fd5b50919050565b634e487b7160e01b600052601160045260246000fdfea54714518c5d275fdcd3d2a461e4858e4e8cb04fb93cd0bca9d6d34115f26440ddf252ad1be2c89b69c2b068fc378daa952ba7f163c4a11628f55a4df523b3efa2646970667358221220f813f8fafb3dd758d956393bef9c9c54e29d00a56162f8ca70aa5a33f8712eb764736f6c63430008040033",
  "immutableReferences": {},
  "source": "// SPDX-License-Identifier: MIT\n\npragma solidity >=0.7.0 <0.9.0;\n\nimport \"@openzeppelin/contracts/security/Pausable.sol\";\nimport \"@openzeppelin/contracts/token/ERC20/IERC20.sol\";\nimport \"@openzeppelin/contracts/utils/math/SafeMath.sol\";\n// import \"@openzeppelin/contracts/access/Ownable.sol\";\nimport \"./AntiWhale.sol\";\nimport \"./WhiteList.sol\";\n\n// TODO:  -    -   \n// TODO:          \n// TODO:  \n// TODO: ,     ,  \n// TODO:  -  \n// TODO:     ,   (  3 ) +    ,  3   \n\n//   \ncontract UnnamedToken is Context, IERC20, WhiteList {\n    using SafeMath for uint256;\n\n    mapping(address => uint256) private _balances;\n\n    mapping(address => mapping(address => uint256)) private _allowances;\n\n    string private _name = \"Unnamed\";\n    string private _symbol = \"UNN\";\n    uint8 private _decimals = 18;\n\n    uint256 public _taxFee = 5;\n    uint256 public _liquidityFee = 5;\n\n    uint256 constant maxCap = 1000000000 * (10**18);\n    uint256 private _totalSupply = maxCap;\n\n    constructor() {\n        _balances[msg.sender] = maxCap;\n    }\n\n    function name() public view virtual returns (string memory) {\n        return _name;\n    }\n\n    function symbol() public view virtual returns (string memory) {\n        return _symbol;\n    }\n\n    function decimals() public view virtual returns (uint8) {\n        return 18;\n    }\n\n    function totalSupply() public view virtual override returns (uint256) {\n        return _totalSupply;\n    }\n\n    function balanceOf(address account)\n        public\n        view\n        virtual\n        override\n        returns (uint256)\n    {\n        return _balances[account];\n    }\n\n    //  (1,5%),    (2%), (1.5%)\n    function transfer(address recipient, uint256 amount)\n        public\n        virtual\n        override\n        returns (bool)\n    {\n        _transfer(_msgSender(), recipient, amount);\n        return true;\n    }\n\n    function setTaxFeePercent(uint256 taxFee) external onlyOwner {\n        _taxFee = taxFee;\n    }\n\n    function setLiquidityFeePercent(uint256 liquidityFee) external onlyOwner {\n        _liquidityFee = liquidityFee;\n    }\n\n    function allowance(address owner, address spender)\n        public\n        view\n        virtual\n        override\n        returns (uint256)\n    {\n        return _allowances[owner][spender];\n    }\n\n    function approve(address spender, uint256 amount)\n        public\n        virtual\n        override\n        returns (bool)\n    {\n        _approve(_msgSender(), spender, amount);\n        return true;\n    }\n\n    function transferFrom(\n        address sender,\n        address recipient,\n        uint256 amount\n    ) public virtual override returns (bool) {\n        _transfer(sender, recipient, amount);\n\n        uint256 currentAllowance = _allowances[sender][_msgSender()];\n        require(\n            currentAllowance >= amount,\n            \"ERC20: transfer amount exceeds allowance\"\n        );\n        _approve(sender, _msgSender(), currentAllowance.sub(amount));\n\n        return true;\n    }\n\n    function increaseAllowance(address spender, uint256 addedValue)\n        public\n        virtual\n        returns (bool)\n    {\n        _approve(\n            _msgSender(),\n            spender,\n            _allowances[_msgSender()][spender].add(addedValue)\n        );\n        return true;\n    }\n\n    function calculateTaxFee(uint256 _amount) private view returns (uint256) {\n        return _amount.mul(_taxFee).div(10**2);\n    }\n\n    function decreaseAllowance(address spender, uint256 subtractedValue)\n        public\n        virtual\n        returns (bool)\n    {\n        uint256 currentAllowance = _allowances[_msgSender()][spender];\n        require(\n            currentAllowance >= subtractedValue,\n            \"ERC20: decreased allowance below zero\"\n        );\n        _approve(_msgSender(), spender, currentAllowance - subtractedValue);\n\n        return true;\n    }\n\n    //     -      \n    function _transfer(\n        address sender,\n        address recipient,\n        uint256 amount\n    ) internal virtual {\n        require(sender != address(0), \"ERC20: transfer from the zero address\");\n\n        uint256 tFee = calculateTaxFee(amount);\n        uint256 tLiquidity = calculateLiquidityFee(amount);\n\n        if (recipient == address(0)) {\n            _burn(sender, amount);\n        } else {\n            require(!isWhale(amount), \"Error: No time for whales!\");\n\n            uint256 senderBalance = _balances[sender];\n            require(\n                senderBalance >= amount,\n                \"ERC20: transfer amount exceeds balance\"\n            );\n\n            if (!isPaused() && whitelisted(recipient)) {\n                _balances[recipient] = _balances[recipient] + amount;\n            } else {}\n\n            emit Transfer(sender, recipient, amount);\n        }\n    }\n\n    function calculateLiquidityFee(uint256 _amount)\n        private\n        view\n        returns (uint256)\n    {\n        return _amount.mul(_liquidityFee).div(10**2);\n    }\n\n    function _burn(address account, uint256 amount) internal virtual {\n        require(account != address(0), \"ERC20: burn from the zero address\");\n\n        uint256 accountBalance = _balances[account];\n        require(accountBalance >= amount, \"ERC20: burn amount exceeds balance\");\n        _balances[account] = accountBalance - amount;\n        _totalSupply -= amount;\n\n        emit Transfer(account, address(0), amount);\n    }\n\n    function _approve(\n        address owner,\n        address spender,\n        uint256 amount\n    ) internal virtual {\n        require(owner != address(0), \"ERC20: approve from the zero address\");\n        require(spender != address(0), \"ERC20: approve to the zero address\");\n\n        _allowances[owner][spender] = amount;\n        emit Approval(owner, spender, amount);\n    }\n}\n",
  "sourcePath": "/home/ilyadruzh/Documents/druzhcom/UnnamedToken/contracts/UnnamedToken.sol",
  "compiler": {
    "name": "solc",
    "version": "0.8.4+commit.c7e474f2.Emscripten.clang"
  },
  "schemaVersion": "3.4.1",
  "updatedAt": "2021-08-03T16:05:49.584Z",
  "devdoc": {
    "kind": "dev",
    "methods": {
      "allowance(address,address)": {
        "details": "Returns the remaining number of tokens that `spender` will be allowed to spend on behalf of `owner` through {transferFrom}. This is zero by default. This value changes when {approve} or {transferFrom} are called."
      },
      "approve(address,uint256)": {
        "details": "Sets `amount` as the allowance of `spender` over the caller's tokens. Returns a boolean value indicating whether the operation succeeded. IMPORTANT: Beware that changing an allowance with this method brings the risk that someone may use both the old and the new allowance by unfortunate transaction ordering. One possible solution to mitigate this race condition is to first reduce the spender's allowance to 0 and set the desired value afterwards: https://github.com/ethereum/EIPs/issues/20#issuecomment-263524729 Emits an {Approval} event."
      },
      "balanceOf(address)": {
        "details": "Returns the amount of tokens owned by `account`."
      },
      "owner()": {
        "details": "Returns the address of the current owner."
      },
      "paused()": {
        "details": "Returns true if the contract is paused, and false otherwise."
      },
      "renounceOwnership()": {
        "details": "Leaves the contract without owner. It will not be possible to call `onlyOwner` functions anymore. Can only be called by the current owner. NOTE: Renouncing ownership will leave the contract without an owner, thereby removing any functionality that is only available to the owner."
      },
      "totalSupply()": {
        "details": "Returns the amount of tokens in existence."
      },
      "transfer(address,uint256)": {
        "details": "Moves `amount` tokens from the caller's account to `recipient`. Returns a boolean value indicating whether the operation succeeded. Emits a {Transfer} event."
      },
      "transferFrom(address,address,uint256)": {
        "details": "Moves `amount` tokens from `sender` to `recipient` using the allowance mechanism. `amount` is then deducted from the caller's allowance. Returns a boolean value indicating whether the operation succeeded. Emits a {Transfer} event."
      },
      "transferOwnership(address)": {
        "details": "Transfers ownership of the contract to a new account (`newOwner`). Can only be called by the current owner."
      }
    },
    "version": 1
  },
  "userdoc": {
    "kind": "user",
    "methods": {},
    "version": 1
  }
}