{
  "contractName": "WhiteList",
  "abi": [
    {
      "anonymous": false,
      "inputs": [
        {
          "indexed": true,
          "internalType": "address",
          "name": "previousOwner",
          "type": "address"
        },
        {
          "indexed": true,
          "internalType": "address",
          "name": "newOwner",
          "type": "address"
        }
      ],
      "name": "OwnershipTransferred",
      "type": "event"
    },
    {
      "anonymous": false,
      "inputs": [
        {
          "indexed": false,
          "internalType": "address",
          "name": "account",
          "type": "address"
        }
      ],
      "name": "Paused",
      "type": "event"
    },
    {
      "anonymous": false,
      "inputs": [
        {
          "indexed": false,
          "internalType": "address",
          "name": "account",
          "type": "address"
        }
      ],
      "name": "Unpaused",
      "type": "event"
    },
    {
      "anonymous": false,
      "inputs": [
        {
          "indexed": true,
          "internalType": "address",
          "name": "account",
          "type": "address"
        },
        {
          "indexed": false,
          "internalType": "bool",
          "name": "isWhitelisted",
          "type": "bool"
        }
      ],
      "name": "Whitelisted",
      "type": "event"
    },
    {
      "inputs": [],
      "name": "activateAntiWhale",
      "outputs": [],
      "stateMutability": "nonpayable",
      "type": "function"
    },
    {
      "inputs": [],
      "name": "antiWhaleActivated",
      "outputs": [
        {
          "internalType": "bool",
          "name": "",
          "type": "bool"
        }
      ],
      "stateMutability": "view",
      "type": "function"
    },
    {
      "inputs": [],
      "name": "deActivateAntiWhale",
      "outputs": [],
      "stateMutability": "nonpayable",
      "type": "function"
    },
    {
      "inputs": [],
      "name": "endDate",
      "outputs": [
        {
          "internalType": "uint256",
          "name": "",
          "type": "uint256"
        }
      ],
      "stateMutability": "view",
      "type": "function"
    },
    {
      "inputs": [
        {
          "internalType": "uint256",
          "name": "amount",
          "type": "uint256"
        }
      ],
      "name": "isWhale",
      "outputs": [
        {
          "internalType": "bool",
          "name": "",
          "type": "bool"
        }
      ],
      "stateMutability": "view",
      "type": "function"
    },
    {
      "inputs": [],
      "name": "limitWhale",
      "outputs": [
        {
          "internalType": "uint256",
          "name": "",
          "type": "uint256"
        }
      ],
      "stateMutability": "view",
      "type": "function"
    },
    {
      "inputs": [],
      "name": "owner",
      "outputs": [
        {
          "internalType": "address",
          "name": "",
          "type": "address"
        }
      ],
      "stateMutability": "view",
      "type": "function"
    },
    {
      "inputs": [],
      "name": "paused",
      "outputs": [
        {
          "internalType": "bool",
          "name": "",
          "type": "bool"
        }
      ],
      "stateMutability": "view",
      "type": "function"
    },
    {
      "inputs": [],
      "name": "renounceOwnership",
      "outputs": [],
      "stateMutability": "nonpayable",
      "type": "function"
    },
    {
      "inputs": [
        {
          "internalType": "uint256",
          "name": "_startDate",
          "type": "uint256"
        },
        {
          "internalType": "uint256",
          "name": "_endDate",
          "type": "uint256"
        },
        {
          "internalType": "uint256",
          "name": "_limitWhale",
          "type": "uint256"
        }
      ],
      "name": "setAntiWhale",
      "outputs": [],
      "stateMutability": "nonpayable",
      "type": "function"
    },
    {
      "inputs": [],
      "name": "startDate",
      "outputs": [
        {
          "internalType": "uint256",
          "name": "",
          "type": "uint256"
        }
      ],
      "stateMutability": "view",
      "type": "function"
    },
    {
      "inputs": [
        {
          "internalType": "address",
          "name": "newOwner",
          "type": "address"
        }
      ],
      "name": "transferOwnership",
      "outputs": [],
      "stateMutability": "nonpayable",
      "type": "function"
    },
    {
      "inputs": [
        {
          "internalType": "address",
          "name": "_address",
          "type": "address"
        }
      ],
      "name": "whitelisted",
      "outputs": [
        {
          "internalType": "bool",
          "name": "",
          "type": "bool"
        }
      ],
      "stateMutability": "view",
      "type": "function"
    },
    {
      "inputs": [
        {
          "internalType": "address",
          "name": "_address",
          "type": "address"
        }
      ],
      "name": "addAddress",
      "outputs": [],
      "stateMutability": "nonpayable",
      "type": "function"
    },
    {
      "inputs": [
        {
          "internalType": "address",
          "name": "_address",
          "type": "address"
        }
      ],
      "name": "removeAddress",
      "outputs": [],
      "stateMutability": "nonpayable",
      "type": "function"
    },
    {
      "inputs": [],
      "name": "isPaused",
      "outputs": [
        {
          "internalType": "bool",
          "name": "",
          "type": "bool"
        }
      ],
      "stateMutability": "view",
      "type": "function"
    }
  ],
  "bytecode": "0x608060405234801561001057600080fd5b5061001a3361002a565b6004805461ff001916905561007a565b600080546001600160a01b038381166001600160a01b0319831681178455604051919092169283917f8be0079c531659141344cd1fd0a4f28419497f9722a3daafe3b4186f6b6457e09190a35050565b6106fa806100896000396000f3fe608060405234801561001057600080fd5b50600436106100d05760003560e01c80630b97bc86146100d55780631ded36aa146100f157806338eada1c146100fa5780634ba79dfe1461010f5780635c975abb146101225780636c3efad61461013e5780636dec8ccc14610151578063715018a61461015e5780638da5cb5b146101665780638fedda4114610186578063b187bd261461018e578063b8e7cd5e1461019f578063c1c3a9c0146101b2578063c24a0f8b146101ba578063d936547e146101c3578063f2fde38b146101d6575b600080fd5b6100de60015481565b6040519081526020015b60405180910390f35b6100de60035481565b61010d6101083660046105fe565b6101e9565b005b61010d61011d3660046105fe565b6102a8565b600454610100900460ff165b60405190151581526020016100e8565b61012e61014c36600461062c565b610339565b60045461012e9060ff1681565b61010d6103a8565b61016e6103e3565b6040516001600160a01b0390911681526020016100e8565b61010d6103f2565b60045462010000900460ff1661012e565b61010d6101ad366004610644565b610441565b61010d61048d565b6100de60025481565b61012e6101d13660046105fe565b6104db565b61010d6101e43660046105fe565b610515565b336101f26103e3565b6001600160a01b0316146102215760405162461bcd60e51b81526004016102189061066f565b60405180910390fd5b6001600160a01b03811660009081526005602052604090205460ff1615156001141561024c57600080fd5b600454610100900460ff166102a5576001600160a01b038116600081815260056020908152604091829020805460ff1916600190811790915591519182526000805160206106a583398151915291015b60405180910390a25b50565b336102b16103e3565b6001600160a01b0316146102d75760405162461bcd60e51b81526004016102189061066f565b6001600160a01b03811660009081526005602052604090205460ff166102fc57600080fd5b6001600160a01b0381166000818152600560209081526040808320805460ff19169055519182526000805160206106a5833981519152910161029c565b60006103436103e3565b6001600160a01b0316336001600160a01b03161480610365575060045460ff16155b8061037257506003548211155b1561037f57506000919050565b600154421015801561039357506002544211155b156103a057506001919050565b506000919050565b336103b16103e3565b6001600160a01b0316146103d75760405162461bcd60e51b81526004016102189061066f565b6103e160006105ae565b565b6000546001600160a01b031690565b336103fb6103e3565b6001600160a01b0316146104215760405162461bcd60e51b81526004016102189061066f565b60045460ff16151560011461043557600080fd5b6004805460ff19169055565b3361044a6103e3565b6001600160a01b0316146104705760405162461bcd60e51b81526004016102189061066f565b60019283556002919091556003556004805460ff19169091179055565b336104966103e3565b6001600160a01b0316146104bc5760405162461bcd60e51b81526004016102189061066f565b60045460ff16156104cc57600080fd5b6004805460ff19166001179055565b600454600090610100900460ff16156104f657506001919050565b506001600160a01b031660009081526005602052604090205460ff1690565b3361051e6103e3565b6001600160a01b0316146105445760405162461bcd60e51b81526004016102189061066f565b6001600160a01b0381166105a95760405162461bcd60e51b815260206004820152602660248201527f4f776e61626c653a206e6577206f776e657220697320746865207a65726f206160448201526564647265737360d01b6064820152608401610218565b6102a5815b600080546001600160a01b038381166001600160a01b0319831681178455604051919092169283917f8be0079c531659141344cd1fd0a4f28419497f9722a3daafe3b4186f6b6457e09190a35050565b60006020828403121561060f578081fd5b81356001600160a01b0381168114610625578182fd5b9392505050565b60006020828403121561063d578081fd5b5035919050565b600080600060608486031215610658578182fd5b505081359360208301359350604090920135919050565b6020808252818101527f4f776e61626c653a2063616c6c6572206973206e6f7420746865206f776e657260408201526060019056fea54714518c5d275fdcd3d2a461e4858e4e8cb04fb93cd0bca9d6d34115f26440a2646970667358221220d83caf6e4e7c160eda253057064644987b86a7caca2c12bba6d34bab88c45feb64736f6c63430008040033",
  "immutableReferences": {},
  "source": "// SPDX-License-Identifier: MIT\n\npragma solidity >=0.7.0 <0.9.0;\n\nimport \"@openzeppelin/contracts/security/Pausable.sol\";\nimport \"./AntiWhale.sol\";\n\ncontract WhiteList is AntiWhale, Pausable {\n    bool wlPaused;\n\n    mapping(address => bool) private whitelistedMap;\n\n    event Whitelisted(address indexed account, bool isWhitelisted);\n\n    function whitelisted(address _address) public view returns (bool) {\n        if (paused()) {\n            return true;\n        }\n\n        return whitelistedMap[_address];\n    }\n\n    function addAddress(address _address) public onlyOwner {\n        require(whitelistedMap[_address] != true);\n\n        if (!paused()) {\n            whitelistedMap[_address] = true;\n            emit Whitelisted(_address, true);\n        }\n    }\n\n    function removeAddress(address _address) public onlyOwner {\n        require(whitelistedMap[_address] != false);\n        whitelistedMap[_address] = false;\n        emit Whitelisted(_address, false);\n    }\n\n    function isPaused() public view returns (bool) {\n        return wlPaused;\n    }\n}\n",
  "sourcePath": "/home/ilyadruzh/Documents/druzhcom/UnnamedToken/contracts/WhiteList.sol",
  "compiler": {
    "name": "solc",
    "version": "0.8.4+commit.c7e474f2.Emscripten.clang"
  },
  "schemaVersion": "3.4.1",
  "updatedAt": "2021-08-03T16:05:49.592Z",
  "devdoc": {
    "kind": "dev",
    "methods": {
      "owner()": {
        "details": "Returns the address of the current owner."
      },
      "paused()": {
        "details": "Returns true if the contract is paused, and false otherwise."
      },
      "renounceOwnership()": {
        "details": "Leaves the contract without owner. It will not be possible to call `onlyOwner` functions anymore. Can only be called by the current owner. NOTE: Renouncing ownership will leave the contract without an owner, thereby removing any functionality that is only available to the owner."
      },
      "transferOwnership(address)": {
        "details": "Transfers ownership of the contract to a new account (`newOwner`). Can only be called by the current owner."
      }
    },
    "version": 1
  },
  "userdoc": {
    "kind": "user",
    "methods": {},
    "version": 1
  }
}